:020000040800F2
:10000000481A0020252000089D1000089F100008B5
:10001000A3100008A7100008AB10000800000000A3
:10002000000000000000000000000000AF10000809
:10003000B110000800000000B3100008B51000085F
:100040003F2000083F2000083F2000083F20000814
:100050003F2000083F2000083F2000083F20000804
:100060003F2000083F2000083F2000083F200008F4
:100070003F2000083F2000083F2000083F200008E4
:100080003F2000083F2000083F2000083F200008D4
:100090003F2000083F2000083F2000083F200008C4
:1000A0003F2000083F2000083F2000083F200008B4
:1000B0003F2000083F2000083F2000083F200008A4
:1000C0003F2000083F2000083F2000083F20000894
:1000D0003F2000089B1F00083F2000083F20000829
:1000E0003F2000083F2000083F2000083F20000874
:1000F0003F2000083F2000083F2000083F20000864
:100100003F2000083F2000083F2000083F20000853
:100110003F2000083F2000083F2000083F20000843
:100120003F2000083F2000083F2000083F20000833
:1001300000F002F800F067F80AA090E8000C824492
:100140008344AAF10107DA4501D100F05CF8AFF26F
:10015000090EBAE80F0013F0010F18BFFB1A43F0A5
:100160000103184784540000A45400000A444FF0CF
:10017000000C10F8013B13F0070408BF10F8014B06
:100180001D1108BF10F8015B641E05D010F8016B4B
:10019000641E01F8016BF9D113F0080F1EBF10F8AF
:1001A000014BAD1C0C1B09D16D1E58BF01F801CBD2
:1001B000FAD505E014F8016B01F8016B6D1EF9D555
:1001C0009142D6D37047000000230024002500266A
:1001D000103A28BF78C1FBD8520728BF30C148BFAA
:1001E0000B607047662904F0A685002070471FB594
:1001F00003F03EF904000020002103F08DFEE060D2
:100200001FBD10B510BD03F04BFA1146FFF7EFFF0D
:1002100000F0B7F803F069FA03B4FFF7F2FF03BC8C
:1002200001F060FE2DE9FC5F04464FF0000A2CE06F
:100230004FF0000922E009F1010004EBC00004EBDB
:10024000C901D0E900B303C95A46CDE9000104F061
:100250003BFA0FD204EBC90060C809F1010004EBBE
:10026000C00103C904EBC90203C209F1010004EB98
:10027000C00060C009F1010000F0FF09B9F1310FC1
:10028000D9DB0AF1010000F0FF0ABAF1310FCFDB30
:100290004FF0090A0EE004EBCA01D1E900B35A4657
:1002A0003846414603F04EFE074688460AF10100F3
:1002B00000F0FF0ABAF1270FEDDB0022FE4B3846B3
:1002C000414603F0F3FE05460E4600BF2846314680
:1002D000BDE8FC9F2DE9FF5F04464FF0000A2EE0C9
:1002E0004FF0000924E009F1010004EBC000D0E95F
:1002F000007304EBC9003A46D0E900B1584604F057
:10030000E3F911D204EBC90060C809F1010004EB64
:10031000C000D0E9001004EBC902C2E9001009F1E5
:10032000010004EBC00060C009F1010000F0FF090A
:10033000B9F1050FD7DB0AF1010000F0FF0ABAF1AD
:10034000050FCDDBD4E904733A46D4E902B158462F
:1003500003F0F8FDCDE90001D4E906733A4603F055
:10036000F1FDCDE902010022D44BDDE9020103F0E9
:100370009DFE05460E4600BF2846314604B0BDE846
:10038000F09F0EB50020029001F042FD4FF4A060F6
:1003900001F068FE4FF4E13001F0B3FD00F07CFFA6
:1003A00000F0A0FF01F0B1FA01F02CF801F09CF888
:1003B00001F005F90023C2A21946184601F007FB17
:1003C000CAE3029800F0A8FF0646002E7DD0012E59
:1003D00049D0022E27D0032E05D0052E79D1012039
:1003E000B949087075E0B948007801281AD1B848B1
:1003F0000078401CB64908700120B64908700023F7
:10040000B5A20A21184601F0E2FA0023B0480278AA
:100410000A213C2001F011FC0023B5A20D21184651
:1004200001F0D5FA55E0A948007801281AD1A8486A
:100430000078401EA64908700120A64908700023D4
:10044000A5A20A21184601F0C2FA0023A0480278AA
:100450000A213C2001F0F1FB0023A5A20D21184642
:1004600001F0B5FA35E099480078401C97490870CA
:1004700008460078012807D1002002900023A1A29D
:1004800019463C2001F0A3FA9048007802280BD1CD
:1004900000239EA219463C2001F099FA00239EA257
:1004A0000A21184601F093FA8848007803280FD1F2
:1004B00001200290002395A21946502001F087FAEE
:1004C000002395A20A21184600E003E001F07FFA1C
:1004D00000BF00BF7D48007802287DD1002412E0D3
:1004E000082001F0FAF8924A02EBC40203C29048D5
:1004F000FFF7F0FE8F4A03C28E480CC88EA002F0B0
:100500002BFD601CC4B2052CEADB00228F4B89490D
:1005100003C903F09FFF09D200208D490870002312
:10052000084602780A213C2001F087FB0022874B15
:10053000804903C904F0C8F810D20022854B7D49D8
:1005400003C903F087FF09D2012081490870002305
:10055000084602780A213C2001F06FFB00227D4B07
:10056000744903C904F0B0F810D200227A4B7149E3
:1005700003C903F06FFF09D20220754908700023F8
:10058000084602780A213C2001F057FB0022724BFA
:10059000684903C904F098F810D200226F4B6549EE
:1005A00003C903F057FF09D20320694908700023EB
:1005B000084602780A213C2001F03FFB0022674BED
:1005C0005C4903C904F080F812D20022644B5949F7
:1005D00003C903F03FFF00E024E009D204205C4996
:1005E00008700023084602780A213C2001F025FB10
:1005F00000225B4B4F4903C904F066F812D25948F8
:10060000D0E90A733A464B4903C903F023FF09D2E4
:1006100005204F4908700023084602780A213C2033
:1006200001F00BFB29480078032843D1002412E095
:10063000082001F052F83E4A02EBC40203C23C48D3
:10064000FFF748FE3B4A03C23A480CC83AA002F002
:1006500083FC601CC4B2052CEADB43480078012807
:1006600028DD4048D0E900733A46324903C903F017
:10067000F1FE09D2002036490870002308460278AE
:100680000A213C2001F0D9FA3648D0E900733A46F5
:10069000284903C904F018F86FD23249D1E902732E
:1006A0003A46244903C903F0D5FE66D20120284901
:1006B00008705BE009E160E000003F400000084096
:1006C0004D4F44453A0000005400002051000020E6
:1006D00052000020530000204C6561726E696E6705
:1006E0003A20202020202020202020202020000030
:1006F000646174613A2020202020202020202020C6
:10070000202000004C6561726E0000004469726533
:100710006374546573742000526573756C743A2069
:100720002020202020202020202020200000000049
:10073000E8120020580000204144535F4F555450A8
:1007400055543A256C660D0A0000000000B4A44020
:10075000550000200070A7400020AC400088B34046
:10076000A0902041901200200000002000230846A5
:1007700002780A213C2001F060FAF848D0E90273BF
:100780003A46F74903C903F09FFF12D2F348D0E974
:1007900004733A46F24903C903F05CFE09D2022011
:1007A000F04908700023084602780A213C2001F035
:1007B00044FAEA48D0E904733A46E94903C903F028
:1007C00083FF12D2E549D1E906733A46E44903C9E9
:1007D00003F040FE09D20320E249087000230846D6
:1007E00002780A213C2001F028FADC49D1E906739D
:1007F0003A46DB4903C903F067FF12D2D748D0E974
:1008000008733A46D64903C903F024FE09D20420EE
:10081000D44908700023084602780A213C2001F0E0
:100820000CFACE49D1E908733A46CD4903C903F021
:100830004BFF12D2C949D1E90A733A46C84903C9E4
:1008400003F008FE09D20520C649087000230846B7
:1008500002780A213C2001F0F0F9C048D0E90A737F
:100860003A46BF4903C903F02FFF12D2BB49D1E971
:100870000C733A46BA4903C903F0ECFD09D20620CD
:10088000B84908700023084602780A213C2001F08C
:10089000D4F9B249D1E90C733A46B14903C903F01E
:1008A00013FF12D2AD49D1E90E733A46AC4903C9E0
:1008B00003F0D0FD09D20720AA490870002308469A
:1008C00002780A213C2001F0B8F9A74800780128F5
:1008D0007ED109F10109A54881450CD9082000F015
:1008E000FCFE9F4A03C29E480CC8AFF2B41002F04F
:1008F00033FB4FF000099E480078002868D09D48DF
:1009000000780128E4D19A48007809283DD2DFE830
:1009100000F03C053D77AFE7FDFCFB00002411E053
:10092000082000F0DAFE944A02EBC40203C29248A7
:1009300000EBC400D0E900733A4690A002F00CFB33
:10094000601CC4B2322CEBDB8B48FFF76BFC904A87
:1009500003C200208749087000238EA20A21642068
:1009600001F035F88A480CC88BA002F0F5FA8849E6
:1009700003C903F02FFD80B2642190FBF1F700233F
:100980003A460D213C2001F058F92EE2002411E0F6
:10099000082000F0A2FE874A02EBC40203C2854889
:1009A00000EBC400D0E900733A4683A002F0D4FA09
:1009B000601CC4B2322CEBDB7E48FFF733FC834A69
:1009C00003C200206B490870002372A20A2100E0D4
:1009D0000CE2642000F0FBFF7C480CC87CA002F015
:1009E000BBFA7A4903C903F0F5FC80B2642190FB9D
:1009F000F1F700233A460D213C2001F01EF9F4E105
:100A0000002411E0082000F068FE784A02EBC402DE
:100A100003C2764800EBC401D1E900733A4674A0E2
:100A200002F09AFA601CC4B2322CEBDB6F48FFF77D
:100A3000F9FB744A03C200204E490870002355A2F6
:100A40000A21642000F0C3FF6E480CC86EA002F0BB
:100A500083FA6C4903C903F0BDFC80B2642190FBAA
:100A6000F1F700233A460D213C2001F0E6F8BCE105
:100A7000002411E0082000F030FE6A4A02EBC402B4
:100A800003C2684800EBC401D1E900733A4666A08E
:100A900002F062FA601CC4B2322CEBDB6148FFF753
:100AA000C1FB664A03C2002032490870002339A204
:100AB0000A21642000F08BFF60480CC860A002F09F
:100AC0004BFA5E4903C903F085FC80B2642190FBB8
:100AD000F1F700233A460D213C2001F0AEF884E105
:100AE000002415E0082000F0F8FD5C4A02EBC40287
:100AF00003C25A4800EBC401D1E900733A4658A03A
:100B000002F02AFA601C02E036E1FCE0C2E0C4B266
:100B1000322CE7DB5148FFF785FB564A03C2002021
:100B20001449087000231BA20A21642000F04FFF23
:100B300050480CC850A002F00FFA4E4903C903F008
:100B400049FC80B2642190FBF1F700233A460D2165
:100B50003C2001F072F848E1C1E100009012002051
:100B6000580000205500002051000020400D0300D7
:100B70005200002053000020D0050020656C656302
:100B8000747269635F617070303A256C660D0A009B
:100B9000100000206F6B0000656C65637472696300
:100BA0005F6170705F73746F7265303A256C660DAB
:100BB0000A00000060070020656C65637472696359
:100BC0005F617070313A256C660D0A0018000020D4
:100BD000656C6563747269635F6170705F73746F75
:100BE0007265313A256C660D0A000000F00800209D
:100BF000656C6563747269635F617070323A256C0D
:100C0000660D0A0020000020656C656374726963DC
:100C10005F6170705F73746F7265323A256C660D38
:100C20000A000000800A0020656C656374726963C5
:100C30005F617070333A256C660D0A002800002051
:100C4000656C6563747269635F6170705F73746F04
:100C50007265333A256C660D0A000000100C002006
:100C6000656C6563747269635F617070343A256C9A
:100C7000660D0A0030000020656C6563747269635C
:100C80005F6170705F73746F7265343A256C660DC6
:100C90000A000000002411E0082000F01EFDC44AF4
:100CA00002EBC40203C2C24800EBC401D1E90073E5
:100CB0003A46C0A002F050F9601CC4B2322CEBDB03
:100CC000BB48FFF7AFFAC04A03C20020BF49087013
:100CD0000023AFF240120A21642000F078FEBA48E7
:100CE0000CC8BBA002F038F9B74903C903F072FB86
:100CF00080B2642190FBF1F700233A460D213C209D
:100D000000F09BFF71E0002411E0082000F0E5FCFA
:100D1000B64A02EBC40203C2B44800EBC401D1E9F5
:100D200000733A46B2A002F017F9601CC4B2322C2C
:100D3000EBDBAE48FFF776FAB24A03C20020A349C4
:100D400008700023AFF2B4120A21642000F03FFEC5
:100D5000AC480CC8ACA002F0FFF8AA4903C903F0E4
:100D600039FB80B2642190FBF1F700233A460D2154
:100D70003C2000F062FF38E0002411E0082000F081
:100D8000ACFCA84A02EBC40203C2A64800EBC401B3
:100D9000D1E900733A46A4A002F0DEF8601CC4B2A8
:100DA000322CEBDB9F48FFF73DFAA44A03C2002038
:100DB000864908700023AFF224220A21642000F043
:100DC00006FE9E480CC89EA002F0C6F89B4903C9C7
:100DD00003F000FB80B2642190FBF1F700233A4658
:100DE0000D213C2000F029FF00BF00BF9B48007888
:100DF000012874D19A48D0E900109A4AC2E900103B
:100E00009948D0E90010C2E902109848D0E90010D2
:100E1000C2E904109648D0E90010C2E906109549CD
:100E200003C9C2E908016848D0E90010C2E90A1004
:100E3000744903C9C2E90C018048D0E90010C2E935
:100E40000E10002431E000252BE0864800EBC501A0
:100E5000681ED1E90073834901EBC001D1E900A10B
:100E60003A46504603F030FC19D8681E7D4901EB24
:100E7000C000D0E90010804AC2E90010794800EBB8
:100E8000C50006C8681E774B03EBC00006C07A4851
:100E9000D0E900101A4602EBC502C2E90010681C36
:100EA000C5B2082DD1DB601CC4B2082CCBDB6D4869
:100EB00000221346D0E90071384603F04FFA28D1DA
:100EC000002423E0674800EBC40000221346D0E969
:100ED0000071384603F042FA16D000250DE065E0B7
:100EE0006019604901EBC000D0E900105D4A02EBD7
:100EF000C502C2E90010681CC5B2082DF0DBC4F1C0
:100F000008005E49087003E0601CC4B2082CD9DBFD
:100F100000BF00240AE0534800EBC401D1E900738C
:100F20003A4657A002F018F8601CC4B2082CF2DB55
:100F300052480078012836DD00241BE04949601C36
:100F400001EBC000D0E90073084600EBC401D1E911
:100F500000A13A46504602F0F5FF00224FF08043D0
:100F6000CDE9000103F0A2F84A4A02EBC40203C231
:100F7000601CC4B241480078401EA042DEDC3F48FD
:100F80000078401E374901EBC001D1E90071002211
:100F9000414B384602F0D6FF384A1278521E3D4B7C
:100FA00003EBC20203C200202C490870FFF709BA04
:100FB000A00D0020656C6563747269635F61707079
:100FC000353A256C660D0A003800002053000020D9
:100FD000656C6563747269635F6170705F73746F71
:100FE0007265353A256C660D0A000000300F00204E
:100FF000656C6563747269635F617070363A256C05
:10100000660D0A0040000020656C656374726963B8
:101010005F6170705F73746F7265363A256C660D30
:101020000A000000C0100020656C6563747269637B
:101030005F617070373A256C660D0A004800002029
:10104000656C6563747269635F6170705F73746F00
:101050007265373A256C660D0A00000054000020C6
:101060001000002050120020180000202000002056
:101070002800002030000020080000200000002090
:10108000656C6563747269635F6275663A256C6648
:101090000D0A0000901200200088B340704700BF86
:1010A000FEE700BFFEE700BFFEE700BFFEE77047B8
:1010B00070477047704700000CB500200190009009
:1010C0006C48006840F480306A49086000BF694895
:1010D000006800F4003000900198401C01900098D6
:1010E00018B90198B0F5A06FF1D16248006800F41A
:1010F000003010B10120009001E000200090009825
:10110000012843D15C48006840F010005A4908604B
:101110000846006820F0030008600846006840F0B8
:1011200002000860534840685249486008464068D9
:1011300048600846406840F480604860084640685F
:1011400020F47C1048600846406840F4E81048608D
:101150000846006840F08070086000BF454800689D
:1011600000F000700028F9D04248406820F00300E9
:10117000404948600846406840F00200486000BFAF
:101180003C48406800F00C000828F9D10CBD10B5AF
:10119000FFF792FF10BD10B53648006840F001001F
:1011A000344908600846406834490840314948607D
:1011B00008460068324908402E4908600846006821
:1011C00020F4802008600846406820F4FE00486053
:1011D0004FF41F008860FFF7DAFF4FF000602949E5
:1011E000086010BD10B5002100200022214B5B6873
:1011F00003F00C0121B1042906D0082928D107E009
:10120000214B224C236027E01F4B204C236023E01E
:10121000184B5B6803F47010164B5B6803F4803264
:10122000022303EB904022B9194B4343174C236030
:101230000DE0104B5B6803F4003323B1144B4343C0
:10124000124C236003E0104B4343104C236003E037
:101250000D4B0E4C236000BF00BF064B5B68C3F311
:1012600003130C4CE15C094B1B68CB40074C23601B
:1012700010BD000000100240002002400000FFF8F6
:10128000FFFFF6FE08ED00E000127A00600000208B
:1012900000093D006400002008B50121482001F04C
:1012A0006BFA2020ADF8000010208DF80300032019
:1012B0008DF802006946094800F0A2FF2021074886
:1012C00001F04BF82020ADF800006946044800F01A
:1012D00097FF2021024801F040F808BD000C0140B2
:1012E0000018014008B50121442001F045FA3C20D6
:1012F000ADF8000048208DF8030069463E4800F034
:101300007FFF0120ADF8000028208DF8030069461A
:101310003A4800F075FF08BD10B5044614B101202D
:101320003749087036480078002843D010213248E9
:1013300000F0F9FFA0B108212F4800F0F4FF78B1C8
:1013400004212D4800F0EFFF50B120212A4800F081
:10135000EAFF28B10121294800F0E5FF012829D141
:101360000A2000F092FD0020254908701021224833
:1013700000F0D9FF08B9012010BD08211E4800F077
:10138000D2FF08B90220F7E704211B4800F0CBFF89
:1013900008B90320F0E72021174800F0C4FF08B97E
:1013A0000520E9E70121154800F0BDFF012821D102
:1013B0000420E1E71021104800F0B5FF012819D101
:1013C00008210D4800F0AFFF012813D104210A487D
:1013D00000F0A9FF01280DD12021074800F0A3FF4C
:1013E000012807D10121054800F09DFF10B9012017
:1013F000034908700020BFE70018014000080140C1
:101400007400002000B587B00121242001F0B4F958
:101410000121080301F0B0F90121084601F0ACF9FF
:101420001020ADF804008DF8070001208DF80600AB
:1014300001A9BE4800F0E4FEA020ADF80400182089
:101440008DF8070001208DF8060001A9B74800F0CB
:10145000D7FE4020ADF8040048208DF80700012099
:101460008DF8060001A9B14800F0CAFE0020ADF8D1
:1014700008004FF48270ADF80A000020ADF80C00AF
:10148000ADF80E000120ADF810004002ADF81200DA
:101490002820ADF814000020ADF816000720ADF8A4
:1014A000180002A9A24801F0F5FB0121A04801F0B3
:1014B00096FC07B000BD10B5044600BF02219C4851
:1014C00001F011FD0028F9D02146994801F0B8FC3F
:1014D00000BF0121964801F006FD0028F9D094488C
:1014E00001F0B0FCC0B210BD08B50121042001F02C
:1014F00043F91820ADF8000010208DF803000120FA
:101500008DF802006946894800F07AFE0121042026
:1015100001F032F90420ADF800008DF8030001203D
:101520008DF802006946814800F06AFE08BD70B57A
:1015300004460D4608217D4800F011FF00BF7B489E
:101540000830006800F004000028F8D104F00F0112
:1015500041F05000FFF7AFFF0020FFF7ACFF052080
:1015600000F06FFC2846FFF7A6FF08216F4800F047
:10157000F4FE70BD70B50446002508216B4800F0EC
:10158000EEFE00BF69480830006800F00400002843
:10159000F8D104F00F0141F01000FFF78CFF00209C
:1015A000FFF789FF0A2000F04CFC0020FFF783FFC3
:1015B000054608215D4800F0D0FE284670BD10B5F4
:1015C00008215A4800F0CBFE1021584800F0C5FE13
:1015D000642000F036FCFE20FFF76DFF0A2000F0CB
:1015E00054FC00BF51480830006800F00400002897
:1015F000F8D1FC20FFF75FFF0020FFF75CFF00BF82
:101600004A480830006800F004000028F8D1502053
:10161000FFF751FF0320FFF74EFF0420FFF74BFFBA
:101620002320FFF748FF0020FFF745FF0320FFF7C7
:1016300042FF642000F005FC00BF3C480830006811
:1016400000F004000028F8D1F020FFF734FF082153
:10165000364800F082FE642000F017FC10BD70B523
:101660000025002400260821304800F078FE00BF45
:101670002E480830006800F004000028F8D1FC2053
:10168000FFF719FF0020FFF716FF0120FFF713FFF8
:101690000A2000F0D6FB002507E024020020FFF717
:1016A0000AFF06463443681CC5B2032DF5DB08214A
:1016B0001E4800F052FE204602F0B9FE70BD10B583
:1016C000044621461B4801F0F7F900BF194800887D
:1016D00000F080000028F9D010BD2DE9F047044645
:1016E0004FF00008002521460120FFF720FFF020E1
:1016F000FFF7E1FE4FEA2419FFF7B1FF064602F0BB
:1017000069FE0546B5F5000F0AD2284602F08FFEA5
:1017100006460022084B02F0D9FE084A03C201E047
:101720000748451B054903C9BDE8F087000801408B
:101730000030014000380140D012E33F800000201B
:10174000FFFF0F0008B50121082001F015F84FF444
:101750004070ADF8000010208DF8030003208DF8D4
:1017600002006946F64800F04BFD4FF44071F44822
:1017700000F0F3FD08BD10B50120F249086000F04B
:1017800060FB0120F049C1F8A00100F05AFB0020E5
:10179000EC490860012000F054FB0020EA49C1F840
:1017A000A00110BD10B50020E6490860012000F03E
:1017B00048FB0020E449C1F8A001012000F041FBF2
:1017C0000120E049086000F03CFB0120DE49C1F83F
:1017D000A00110BD70B5044600251DE004F0800096
:1017E00018B10120D749086002E00020D5490860FF
:1017F000012000F026FB0120D249091F086000F0FB
:1018000020FB0020D049C1F8A001012000F019FB05
:101810006006040E681CC5B2082DDFDB0120C94933
:10182000091F086000F00DFB0020C749C1F8A001A6
:1018300070BD10B50446FFF79EFF7820FFF7CAFF82
:101840004020FFF7C7FF2046FFF7C4FFFFF7AAFFBE
:1018500010BD10B50446FFF78EFF7820FFF7BAFFE2
:101860000020FFF7B7FF2046FFF7B4FFFFF79AFF0E
:1018700010BD70B504460D4605F1B001C8B2FFF7C2
:10188000E8FF102141EA1410FFF7E3FF04F00F0115
:1018900041F00100FFF7DDFF70BD70B50646002482
:1018A00015E004F1B001C8B2FFF7D3FF0120FFF744
:1018B000D0FF1020FFF7CDFF002504E03046FFF7F2
:1018C000B8FF681CC5B2802DF8DB601CC4B2082CC0
:1018D000E7DB70BD10B50020FFF7DFFF10BD10B5CE
:1018E0008D20FFF7B6FF1420FFF7B3FFAF20FFF7FF
:1018F000B0FF10BD10B58D20FFF7ABFF1020FFF734
:10190000A8FFAE20FFF7A5FF10BD10B5FFF71AFF27
:10191000642000F0BAFAAE20FFF79BFF0020FFF72B
:1019200098FF1020FFF795FF4020FFF792FF8120DE
:10193000FFF78FFFC420FFF78CFFA120FFF789FF7F
:10194000C820FFF786FFA620FFF783FFA820FFF738
:1019500080FF3F20FFF77DFFD320FFF77AFF0020B5
:10196000FFF777FFD520FFF774FF8020FFF771FFA7
:10197000D920FFF76EFFF120FFF76BFFDA20FFF7AA
:1019800068FF1220FFF765FFDB20FFF762FF4020B2
:10199000FFF75FFF2020FFF75CFF0220FFF759FFF2
:1019A0008D20FFF756FF1420FFF753FFA420FFF709
:1019B00050FFA620FFF74DFFAF20FFF74AFF0020A2
:1019C000FFF76BFF00210846FFF753FF10BD2DE91D
:1019D000F05F0446894615469A464FF0000B0026F4
:1019E0000027BAF1000F01D1B04601E04FF0FF0827
:1019F00022E0E85D203800F0FF0B7E2C04DD00249F
:101A000009F1010000F0FF0949462046FFF731FFC8
:101A100000260BE00BEB4B014C4A02EB4101895DC8
:101A200081EA0800FFF705FF701CC6B2062EF1DB45
:101A3000A01DC4B2781CC7B2E85D0028D9D1BDE8AA
:101A4000F09F2DE9F05F0746884691469B460025AA
:101A50000024A246BBF1000F01D1002600E0FF26C2
:101A600038E019F80A002038C5B2782F04DD0027C5
:101A700008F1010000F0FF0841463846FFF7F9FE83
:101A8000002409E004EB0511314A515C81EA0600AB
:101A9000FFF7CFFE601CC4B2082CF3DB08F1010095
:101AA000C1B23846FFF7E5FE00240AE004EB051159
:101AB0000831274A515C81EA0600FFF7BAFE601C34
:101AC000C4B2082CF2DB07F10800C7B20AF101002A
:101AD00000F0FF0A19F80A000028C2D1BDE8F09F03
:101AE0002DE9F04705460E46174698464FF0000987
:101AF00007EB47004FEA400AB8F1000F01D100247C
:101B000000E0FF247E2D02DD0025701CC6B23146A8
:101B10002846FFF7AEFE4FF000090CE051460AF1EF
:101B2000010A0C4A515C81EA0400FFF782FE09F1C8
:101B3000010000F0FF09B9F1060FEFDBBDE8F08707
:101B4000000C0140A4812142008021423A4D00084E
:101B5000624F0008880000202DE9F04707460E4636
:101B60009046994600244FEA081AB9F1000F01D1B6
:101B7000002500E0FF25782F02DD0027701CC6B28B
:101B800031463846FFF775FE00240AE051460AF157
:101B9000010A9C4A515C81EA0500FFF74AFE601C7D
:101BA000C4B2082CF2DB701CC1B23846FFF761FEEC
:101BB00000240AE051460AF1010A924A515C81EA86
:101BC0000500FFF736FE601CC4B2082CF2DBBDE84E
:101BD000F0872DE9F04782460F469046994600244B
:101BE0004FEA4815B9F1000F01D1002600E0FF26A9
:101BF00039465046FFF73DFE002408E08249495D22
:101C000081EA0600FFF715FE6D1C601CC4B2102CA3
:101C1000F4DB781CC1B25046FFF72BFE002408E02D
:101C20007949495D81EA0600FFF703FE6D1C601CDF
:101C3000C4B2102CF4DBBDE8F0872DE9FC41074667
:101C4000884614461E4600208DF805000A20B4FB85
:101C5000F0F100FB114030308DF804000A20B4FB95
:101C6000F0F4B4FBF0F100FB114030308DF80300CC
:101C70000A20B4FBF0F4B4FBF0F100FB114030306B
:101C80008DF802000A20B4FBF0F4B4FBF0F100FB85
:101C9000114030308DF801000A20B4FBF0F4B4FBA1
:101CA000F0F100FB114030308DF8000000250AE013
:101CB0001DF80500302803D120200DF8050000E0B4
:101CC00003E0681CC5B2042DF2DB00BF16B1012E83
:101CD0000ED106E000236A4641463846FFF777FEFC
:101CE00007E000236A4641463846FFF7AAFE00E0B7
:101CF00000BF00BFBDE8FC812DE9FF5F81468A4639
:101D00001646984600208DF80F002E208DF80C0006
:101D10000021304602F09AFE05D286F000462D20C2
:101D20008DF8080002E020208DF80800304602F00F
:101D300059FE0446642104FB01F002F073FE3349AE
:101D40000190304602F0B6FE0090019902F07EFF4D
:101D5000834602F047FEC7B20A20B4FBF0F100FB55
:101D6000114030308DF80B000A20B4FBF0F4B4FBC6
:101D7000F0F100FB114030308DF80A000A20B4FB6E
:101D8000F0F404F13000C0B28DF809000A2097FB8E
:101D9000F0F100FB11703030C0B28DF80E000A2057
:101DA00097FBF0F0C7B207F13000C0B28DF80D001C
:101DB00001250AE002A8405D302803D1202002A9B5
:101DC000485500E003E0681CC5B2032DF2DB00BFFC
:101DD000B8F1000F03D0B8F1010F0ED106E00023D7
:101DE00002AA51464846FFF7F2FD07E0002302AA87
:101DF00051464846FFF725FE00E000BF00BFBDE8A2
:101E0000FF9F0000101300208E0000200000C84239
:101E100010B56FF0040000F074F92E4800682E49E8
:101E2000B0FBF1F02D4908700846007800EB400146
:101E3000C1EBC0104FF6FF7101EAC00028490880CD
:101E400010BD0146254A12784A434FF0E0235A61FB
:101E500000229A611A46126942F001021A6100BF1B
:101E60004FF0E022106900F001021AB100F4803254
:101E7000002AF5D04FF0E022126922F001024FF063
:101E8000E0231A6100229A6170470146144A1288C1
:101E90004A434FF0E0235A6100229A611A461269C0
:101EA00042F001021A6100BF4FF0E022106900F019
:101EB00001021AB100F48032002AF5D04FF0E0227E
:101EC000126922F001024FF0E0231A6100229A61A8
:101ED000704700006000002000127A00AE0500206C
:101EE000B0050020014600BF704700BF494A128874
:101EF00002F04002002AF9D0C2B2464B1B1D1A80E4
:101F0000704710B586B00446012144F2040000F089
:101F100033FC4FF40070ADF8140003208DF8160068
:101F200018208DF8170005A93B4800F069F94FF417
:101F30008060ADF8140004208DF8170005A936481C
:101F400000F05EF925208DF8000003208DF80100D7
:101F50008DF8020001208DF80300684600F087F834
:101F600001940020ADF80800ADF80A00ADF80C00AF
:101F7000ADF810000C20ADF80E0001A9254800F0C6
:101F8000A2FC012240F22551224800F034FD01213B
:101F9000204800F024FD06B010BD10B540F22551D8
:101FA0001C4800F00DFE10B31A4800F089FDC4B2C1
:101FB0001A48008800F40040C8B91848008800F4A6
:101FC000804060B10A2C03D000201449088020E032
:101FD0001248008840F400401049088019E00D2C98
:101FE00006D10E48008840F480400C49088010E07B
:101FF0000A480088C0F30D0009490C5407480088BE
:10200000401C0649088008460088C72801DD0020DA
:10201000088010BD0038014000080140B8050020CC
:10202000201300200948804709480047FEE7FEE7E3
:10203000FEE7FEE7FEE7FEE7FEE7FEE7FEE7FEE778
:1020400004480549054A064B7047000097110008EF
:102050003101000848140020481A002048160020CA
:102060004816002031490143314A1160704770B56C
:10207000002100230F22C47804B32D4C246804F4FB
:10208000E064C4F5E064210AC1F10403CA40447865
:1020900004FA03F18478144021430901254C0678A1
:1020A000A155047804F01F050124AC4005786D119A
:1020B000AD0005F1E025C5F8004109E0047804F021
:1020C0001F050124AC401C4D0678761145F82640CA
:1020D00070BD1A4A0A400243154B1B1F1A60704715
:1020E00039B1134A121D12680243114B1B1D1A60AD
:1020F00006E00F4A121D126882430D4B1B1D1A6029
:102100007047042808D14FF0E021096941F004012B
:102110004FF0E022116107E04FF0E021096921F062
:1021200004014FF0E0221161704700000000FA0541
:102130000CED00E000E400E080E100E080FFFF1F24
:1021400010B50446CC48844208D10121042000F097
:102150002DFB0021042000F029FB46E0C748844203
:1021600008D10121082000F021FB0021082000F007
:102170001DFB3AE0C248844208D10121102000F042
:1021800015FB0021102000F011FB2EE0BD48844219
:1021900008D10121202000F009FB0021202000F0BF
:1021A00005FB22E0B848844208D10121402000F01C
:1021B000FDFA0021402000F0F9FA16E0B34884420D
:1021C00008D10121802000F0F1FA0021802000F0E8
:1021D000EDFA0AE0AE48844207D10121801500F0F3
:1021E000E5FA0021A01500F0E1FA10BD10B50121BB
:1021F000084600F0DBFA0021012000F0D7FA10BDFC
:102200002DE9F0410246002500260020002300248D
:10221000002791F803C00CF00F0591F803C00CF0F3
:10222000100CBCF1000F03D091F802C04CEA050578
:1022300091F800C0BCF1000F31D0146800202BE0F1
:102240004FF0010C0CFA00F3B1F800C00CEA0306E1
:102250009E4220D183004FF00F0C0CFA03F7BC43D1
:1022600005FA03FC4CEA040491F803C0BCF1280F02
:1022700006D14FF0010C0CFA00FCC2F814C00AE0C1
:1022800091F803C0BCF1480F05D14FF0010C0CFAD6
:1022900000FCC2F810C0401C0828D1D31460B1F86B
:1022A00000C0BCF1FF0F34DD546800202EE000F1C7
:1022B000080C4FF0010808FA0CF3B1F800C00CEA62
:1022C00003069E4221D183004FF00F0C0CFA03F756
:1022D000BC4305FA03FC4CEA040491F803C0BCF1CA
:1022E000280F05D100F1080C08FA0CF8C2F8148088
:1022F00091F803C0BCF1480F07D100F1080C4FF072
:10230000010808FA0CF8C2F81080401C0828CED347
:102310005460BDE8F0814FF6FF71018002218170A9
:102320000421C17070470246002093680B400BB136
:10233000012000E0002070470146886880B27047A5
:1023400002460020D3680B400BB1012000E00020C2
:1023500070470146C86880B27047016170474161AB
:1023600070470AB1016100E041617047C160704788
:102370004FF480320A43826181618261826982699D
:10238000704702460020434B18684FF68073184090
:1023900040EA021008433F4B186070473E49C8614D
:1023A0007047F0B50A46002300240021002500F004
:1023B0000046B6F1004F02D1364EF16901E0354ECC
:1023C0007168C0F3034583B200F44016B6F5401FB0
:1023D00008D121F070612F4E766826F070662D4F7F
:1023E0007E6012E000F48016B6F5801F06D1032649
:1023F00006FA05F4A14341F0706106E0460D36018E
:1024000003FA06F6B14341F0706122B1460D360180
:1024100003FA06F6314300F00046B6F1004F02D150
:102420001C4EF16101E01B4E7160F0BD30B5002221
:102430008B071C0F0F2303FA04F2164B08338C1082
:1024400053F824309343134C08348D1044F825304E
:1024500023468C1053F824308C07240F00FA04F420
:1024600023430C4C08348D1044F8253030BD0A4904
:10247000DC3108607047000000080140000C01409A
:10248000001001400014014000180140001C0140F0
:10249000002001400000014000002042DF480068A9
:1024A00040F00100DD49086008464068DC4908400A
:1024B000DA49486008460068DA490840D7490860A8
:1024C0000846006820F4802008600846406820F430
:1024D000FE0048604FF41F0088607047CF490968CC
:1024E00021F48031CD4A11601146096821F4802120
:1024F0001160B0F5803F03D0B0F5802F0ED106E01B
:10250000C649096841F48031C44A116007E0C349F3
:10251000096841F4A021C14A116000E000BF00BF7A
:10252000704710B501460022002300204A11012AFD
:1025300002D1BA4C236806E0022A02D1B74C236AC2
:1025400001E0B64C636A01F01F02012494401C4074
:102550000CB1012000E0002010BD38B50020009033
:102560000024002500BF3120FFF7DBFF054600985F
:10257000401C00900098B0F5A06F01D0002DF2D063
:102580003120FFF7CEFF08B1012400E000242046EF
:1025900038BD01460020A14A106820F0F80040EA4A
:1025A000C10010607047A0490860704702460020D3
:1025B0009A4B586820F47C1042EA01031843974B69
:1025C0005860704798490866704701460020934A52
:1025D000506820F003000843506070478F484068FF
:1025E00000F00C007047014600208C4A506820F033
:1025F000F00008435060704701460020874A506849
:1026000020F4E06008435060704701460020834A90
:10261000506820F4605040EAC1005060704729B112
:102620007E4A527A02437D4B5A7204E07B4A527AC8
:1026300082437A4B5A7270477B49D83108607047A1
:1026400001460020754A506820F44040084350601D
:1026500070470021714A20321170704A82F82010B0
:10266000012802D004280AD104E001216B4A20325B
:10267000117005E00521694A2032117000E000BFA9
:1026800000BF70476949086070476449096A01439F
:10269000624A11627047654944390860704730B535
:1026A00000210022002400235C4D6D6805F00C0120
:1026B00021B1042905D0082923D105E05C4D05602E
:1026C00022E05B4D05601FE0544D6D6805F470120B
:1026D000524D6D6805F48034022505EB92421CB919
:1026E000544D554305600BE04C4D6D6805F40035C5
:1026F0001DB1504D5543056002E04D4D55430560F9
:1027000002E04B4D056000BF00BF444D6D6805F011
:10271000F0010909484D6B5C0568DD4045603F4D9F
:102720006D6805F4E061090A434D6B5C4568DD4066
:1027300085603A4D6D6805F46051C90A3E4D6B5C89
:102740004568DD40C560354D6D6805F44041890B35
:102750003A4D6B5CC568B5FBF3F5056130BD29B139
:102760002E4A526902432D4B5A6104E02B4A5269AA
:1027700082432A4B5A61704729B1284A9269024321
:10278000264B9A6104E0254A92698243234B9A6161
:10279000704729B1214AD2690243204BDA6104E033
:1027A0001E4AD26982431D4BDA61704729B11B4A28
:1027B000D2680243194BDA6004E0184AD2688243B7
:1027C000164BDA60704729B1144A12690243134B61
:1027D0001A6104E0114A12698243104B1A61704772
:1027E00012494039086070470F49C86470470B4967
:1027F000C87170470948406A40F0807007494862D4
:10280000704701460020054A92680A400AB101203B
:1028100000E00020704701498872704700100240B4
:102820000000FFF8FFFFF6FE000042428004424233
:1028300000127A0000093D00BA050020CA050020F8
:1028400010B50446FB48844209D101218803FFF7F3
:10285000ADFF00214FF48040FFF7A8FF32E0F648BB
:10286000844209D101214804FFF7ADFF00214FF454
:102870000030FFF7A8FF25E0F048844209D101218C
:102880008804FFF7A0FF00214FF48020FFF79BFF93
:1028900018E0EB48844209D10121C804FFF793FFF7
:1028A00000214FF40020FFF78EFF0BE0E548844243
:1028B00008D101210805FFF786FF00214FF48010A1
:1028C000FFF781FF10BD2DE9F04786B005460E46A3
:1028D0000024A24600BFA1460027B08900B100BF76
:1028E0002F462C8A4CF6FF700440F08804432C825B
:1028F000AC894EF6F3100440B088318908437189E1
:1029000008430443AC81AC8A4FF6FF400440B089D1
:102910000443AC8201A8FFF7C2FEC648874202D139
:10292000DDF810A001E0DDF80CA0A88900F400405B
:1029300040B10AEBCA0000EB0A1031684900B0FB55
:10294000F1F807E00AEBCA0000EB0A1031688900D1
:10295000B0FBF1F86420B8FBF0F004012009642119
:1029600001FB1089A88900F4004040B1322000EB3F
:10297000C900B0FBF1F000F00700044308E032208A
:1029800000EB09106421B0FBF1F000F00F000443EC
:102990002C8106B0BDE8F0874FF41651016000218C
:1029A0008180C18001810C2141810021818170479A
:1029B00010B502460020108A4FF2FF0318400B8822
:1029C0004C8823438C882343CC88234318431082AC
:1029D00010BD0021018041808180C180704721B1FC
:1029E000828942F40052828104E082894DF6FF73AD
:1029F0001A4082817047F0B5034600240026002566
:102A0000002040F66A17B94200D100BF1846C1F352
:102A1000421401F01F06012707FA06F5012C01D127
:102A20000C3004E0022C01D1103000E014301AB157
:102A300007682F43076002E00768AF430760F0BDF7
:102A40001AB1838A0B43838202E0838A8B43838299
:102A50007047028A4FF6F0731A400282028A0A43D4
:102A60000282704782894FF2FF731A408281828905
:102A70000A438281704721B1828942F00202828139
:102A800004E082894FF6FD731A4082817047028A02
:102A90004FF6DF731A400282028A0A4302827047AD
:102AA00021B1028A42F48042028204E0028A4BF69B
:102AB000FF731A4002827047C1F308028280704798
:102AC00001468888C0F308007047818941F0010100
:102AD00081817047028BD2B20283028B42EA0122CB
:102AE00002837047028B02F47F420283028B0A4307
:102AF0000283704721B1828A42F02002828204E080
:102B0000828A4FF6DF731A408282704721B1828A2F
:102B100042F01002828204E0828A4FF6EF731A407C
:102B20008282704721B1828A42F00802828204E0E8
:102B3000828A4FF6F7731A408282704721B18289E8
:102B400042F40042828103E08289C2F30E02828154
:102B5000704721B1828A42F40062828204E0828A54
:102B60004FF2FF731A4082827047828A4FF6FB73DE
:102B70001A408282828A0A438282704721B1828A05
:102B800042F00202828204E0828A4FF6FD731A400C
:102B90008282704702460020B1F5007F00D100BF5D
:102BA00013880B400BB1012000E00020704701F4B6
:102BB0000072B2F5007F00D100BFCA4302807047A7
:102BC00070B50246002400230025002040F66A1656
:102BD000B14200D100BFC1F3421501F01F0301262D
:102BE00006FA03F3012D02D19689334006E0022D47
:102BF00002D1168A334001E0968A33400C12012636
:102C000006FA04F41688344013B10CB1012000E038
:102C1000002070BD10B50022002340F66A14A142C6
:102C200000D100BF0A1201249440A3B2DC43048007
:102C300010BD000000380140004400400048004042
:102C4000004C00400050004010B50446BE4884428D
:102C500008D101218014FFF7A9FD0021A014FFF77E
:102C6000A5FD16E0B948844208D101210014FFF700
:102C7000AAFD00212014FFF7A6FD0AE0B448844213
:102C800007D10121C013FFF79EFD0021E013FFF7DC
:102C90009AFD10BD10B50022028802F441520B8843
:102CA0004C8823438C882343CC8823430C892343BB
:102CB0004C8923438C892343CC8923431A430280C4
:102CC000838B4FF2FF74234083830B8A038210BDF2
:102CD0002DE9F04F85B005460C464FF0000902275C
:102CE0004FF000084FF0010B0026B246A88B4FF2C0
:102CF00040010840A88302202884B5F81C90A068F1
:102D0000022801D100BF38E0A08810B94FF0010BB4
:102D100001E04FF0020B8D48854200D100E000BF7A
:102D20006846FFF7BCFCDDF800A0E088B0F5007F46
:102D30000AD14FEA1A2000EB80004000A168B0FBE6
:102D4000F1F0401D86B20BE04FEA4B10BAFBF0F0F9
:102D500000EB80004000A168B0FBF1F0401D86B29E
:102D60000A20B6FBF0F606F00108A6EB0800C0F357
:102D70004F074FF6FF7000EA0828022F01DBFF2FF4
:102D800002DD02274FF00008E08840EA08003843DF
:102D90002884A088A18908436188084321880843C2
:102DA00040F4006040EA0909A5F81C9005B0BDE8B0
:102DB000F08F0021018041808180C18001814181AB
:102DC0008181C181072101827047002101804180FA
:102DD0008180C1800221816000218181704721B101
:102DE000028842F04002028004E002884FF6BF737E
:102DF0001A400280704721B1828B42F48062828344
:102E000004E0828B4FF6FF331A408283704730B55F
:102E1000002400230C110125A540ABB21AB185880E
:102E20001D43858002E085889D43858030BD1AB1B1
:102E300083880B43838002E083888B4383807047C1
:102E4000818170470146888970474FF6FF62914241
:102E500004D0028842F48072028004E002884FF6B7
:102E6000FF631A400280704721B1828842F0040259
:102E7000828004E082884FF6FB731A40828070479C
:102E800002884FF2FF731A40028002880A430280D0
:102E90007047018841F480510180704721B1028858
:102EA00042F40052028004E002884DF6FF731A409B
:102EB0000280704702460020012901D0108B00E0FB
:102EC000908A70470146088A7047B1F5804F04D157
:102ED000028842F48042028004E002884BF6FF73CD
:102EE0001A40028070470246002013890B400BB144
:102EF000012000E000207047CA4302817047F0B50E
:102F00000246002000240023002501F00F070126BF
:102F1000BE40B4B20B1101269E40B3B2968806EAB9
:102F200003051689264016B10DB1012000E00020EE
:102F3000F0BD10B5002201F00F040123A3409AB2A6
:102F4000D343038110BD0000003001400038004031
:102F5000003C0040704700000FB4044910B503AABC
:102F6000029800F073FA10BC5DF814FBB405002061
:102F70002DE9F0410F460546002028622846E96801
:102F8000884770B3252805D0D5E901219047286AE4
:102F9000401CF2E7E9682846002688476C2804466A
:102FA0000AD0682C08D04C2C35D06A2C31D0742C27
:102FB00031D07A2C2FD016E0E9680646284688479B
:102FC000B042044608D16C2E23D04FF480662846C8
:102FD000E9688847044606E06C2E03D04FF48076FB
:102FE00001E01EE04026E4B1A4F14100192802D816
:102FF000203446F400663A46214628462E60FDF706
:10300000F1F860B1012808D0FF1D27F00707083745
:10301000B4E78026DBE70026D9E73F1DAEE7204670
:10302000B2E7286ABDE8F081704770477047704783
:1030300070472DE9FF4F0C461E464FF0FF378BB00F
:10304000D2E90001DDF860800A908A46C1F30A5592
:1030500005B93D46002108464FF00000BAF1000FC7
:1030600000F4400005DA00EB80004FF4400101EA73
:1030700050004FEA9059B9F1010F00DDB9460A98A6
:1030800050EA4A000ED044F61050A5F2FF354543F1
:103090002F14B8F1000F1ED07542291E1EDDC9F194
:1030A00000021CE0B8F1010F4FF0000001D0302108
:1030B00003E0F24305E02154401CB042FBDB304604
:1030C0000022002121540B99C1F80880C1E9002099
:1030D0000FB0BDE8F08FBD1B6D1CDEE74A4600DA7D
:1030E000694206A800F066FA06AB93E8070003AB56
:1030F00083E8070050460A9900F03EFB8DE8070080
:10310000A0F500501F3800900398002D09DD42F211
:103110001F014A46084403A90390684600F09DFD3C
:1031200008E0A0F500504A461F3803A903906846FE
:1031300000F0A7FD8DE807000004000C03D04FF05D
:10314000FF30410800E01046B8F1000F03D0002224
:10315000009215461EE0751E05D400F08DF9303240
:1031600062556D1EF9D5B3460122084302D00022F4
:103170007F1C04E02078302801D100227F1E002A25
:10318000099786D01DE0112D07DA00F075F930326D
:1031900062556D1C50EA0102F5D1084302D0009837
:1031A000C8B10EE00021681E05E0235C625C635438
:1031B0002254401E491C8142F7DBAB46A81B401E2F
:1031C0000990002004F80B000B98099AC0F80880B9
:1031D000C0E9002B7CE711264FF0000859E72DE9E4
:1031E000F04F88460446D21D22F0070191B0D1E984
:1031F0000001CDE90A0100F07AFE02460B98C00FEB
:1032000001D02D2007E02068810701D52B2002E0A6
:10321000202101EAC000032A099001D0072A05DB1A
:1032200003464146204600F085F90BE120788006F0
:1032300001D5E06900E00620B8F1650F814606D0AF
:10324000B8F1660F18D0B8F1670F70D131E00020E7
:10325000B9F1110F009001DB112301E009F1010325
:103260000AAA01A90CA8FFF7E4FEDDE90C7000260C
:1032700009F10105834647E001204B4600904FF0DD
:1032800000470AAA01A90CA8FFF7D3FEDDE90DB09B
:103290000C995D46002610B909F101000D18B9EB33
:1032A000050003D4C0F1FF3609F10105A5EB0900C3
:1032B0002BE0B9F1010F01DA4FF001090020B9F15B
:1032C000110F0090484601DD112300E003460AAAD1
:1032D00001A90CA8FFF7ADFEDDE90C704D460026F4
:1032E0008346207800070AD4AB4500DA5D4601A882
:1032F000012D04DD411911F8011C302907D04F457B
:1033000002DA17F1040F04DA012082460FE06D1E85
:10331000EEE7002F02DCED1B3E4403E0781CA842E0
:1033200000DD7D1CB81B00F1010A4FF0004720783A
:10333000000703D4AA4501DB4FF0FF3A0021B7F1A3
:10334000004F0DF143088DF8431024D002202B23A9
:10335000002F01DA7F422D230A21021EA0F1010075
:1033600000DC5FB197FBF1FC97FBF1F201FB1C7CE9
:1033700017460CF1300C08F801CDEEE7A8F101007A
:1033800003702188090501D5452100E06521A0F1E0
:10339000010800F8011C09980FA9A1EB0807FF1DFF
:1033A00000B10120411901EBEA70A1693844081A03
:1033B000401EA0612078C00602D42046AFF30080F2
:1033C000099828B1D4E901219047206A401C206265
:1033D0002078C00622D52046AFF300801EE0002EE4
:1033E00004DBB34502DD01A8805D00E03020D4E9B4
:1033F00001219047206A401C2062761CAAF101003E
:103400005FEA000A0AD100F033F8C0680168405C46
:10341000D4E901219047206A401C2062281EA5F1B2
:103420000105DCDC07E0D4E9012118F8010B904725
:10343000206A401C2062381EA7F10107F3DC2046F9
:10344000AFF30080032011B043E60000074B70B5D6
:103450000D467B4400F05BF80446284600F018F95E
:1034600010B14FF0FF3070BD204670BD95EAFFFFF0
:10347000004870470814002030B5B0F10A024FEA46
:10348000900E71F100034EEA817EB0EB0E0061EB0D
:1034900091014FEA101E4EEA017E10EB0E0041EB47
:1034A00011114FEA102E4EEA016E10EB0E0041EBA7
:1034B00011214FEA104E4EEA014E10EB0E0041EB87
:1034C0001141401841F100014FEAD00040EA41703B
:1034D0004FEAD10110EB80054FEA810444EA907471
:1034E00044EB01046D1944EB0404521BA3414FF05B
:1034F000000348BF0A3200D530BD401C41F1000135
:1035000030BD000001694A1C02610878704700B5AF
:103510008FB0CDE901310021059105497944CDE90C
:10352000031011466846FFF723FD0FB000BD0000F1
:10353000E5FFFFFF2DE9F0411F4604460326016821
:10354000072A01F4006004DB08B116A505E016A502
:1035500003E008B115A500E015A521F010002060DA
:10356000A069C01EA0610FB1401EA0612046AFF34C
:1035700000804FB1D4E9012138469047206A401CB1
:103580002062C01C206206E0206AFAE7D4E901212B
:1035900015F8010B9047761EF8D22046AFF3008055
:1035A000BDE8F0814E414E006E616E00494E46000E
:1035B000696E66002DE9F047814616468AB03348A9
:1035C00078440DC88DE80D0030487844801C03AC69
:1035D0000DC884E80D0041F69B300844372190FB6C
:1035E000F1F290FBF1F5A5F1800501FB12041B3C03
:1035F00002D56442012000E00020DFF890A0804660
:103600000027FA44AAF1BE0A0DE0E00709D03246CD
:10361000684607EB47010AEB810100F032FB8DE8B9
:10362000070064107F1C002CEFD1184F7F44AC3F83
:1036300018E0E80714D007EB04100DF1180A90E821
:103640000E008AE80E00C068F04201D19819089077
:10365000324606A903A800F014FB03AB83E8070079
:103660006D10641C002DE4D132466946B8F1000F9C
:1036700003A802D000F0F1FA01E000F002FBC9E972
:103680000001C9F808200AB0BDE8F0870C2000004E
:10369000007B00F08000704700487047E81300206E
:1036A0007546FFF7F9FFAE4605006946534620F020
:1036B0000700854618B020B5FEF7C2FCBDE82040E3
:1036C0004FF000064FF000074FF000084FF0000BDE
:1036D00021F00701AC46ACE8C009ACE8C009ACE891
:1036E000C009ACE8C0098D4670470446AFF30080BE
:1036F0002046FCF791FD00004FF0013C50F8042BF0
:1037000051F8043B9A4221D1A2EB0C03934313EAF4
:10371000CC1317D150F8042B51F8043B9A4215D121
:10372000A2EB0C03934313EACC130BD150F8042BF8
:1037300051F8043B9A4209D1A2EB0C03934313EADC
:10374000CC13DBD04FF00000704700BFD01A01BA95
:10375000B1FA81F101F0180122FA01F0CB40C1F178
:103760002001DBB2C0B2C01A2CFA01F3D11A914386
:1037700011EAC311E6D170475FEA400C08BF91F02F
:10378000000F4FEA8C234FEAC12243EA51514FEA1E
:103790001C5018BF00F5F0404FEA300018BF41F050
:1037A00000415FEA6C5C00F02980BCF1FF3F08BF7C
:1037B00040F080407047130C06BF12044FF0100C0D
:1037C0004FF0000C130E04BF12020CF1080C130F83
:1037D00004BF12010CF1040C930F04BF92000CF112
:1037E000020CD30F04BF52000CF1010C11464FF034
:1037F0000002A0F11F00A0EB0C00704711F0004F79
:1038000008BF704731F000413FF4D5AF0B0C06BF45
:1038100009044FF0100C4FF0000C0B0E04BF09020E
:103820000CF1080C0B0F04BF09010CF1040C8B0FF9
:1038300004BF89000CF1020CCB0F04BF49000CF14E
:10384000010CCCF12003A0EB0C0022FA03F302FAE6
:103850000CF241EA030100F10100704720F07F4CB7
:1038600080EA030023F07F47ACEB070303F57C53AA
:1038700000F0004003F1FF032DE980494FEA154BAA
:1038800009B44FEA144325EA0B4E24EA03480FF229
:10389000042606EB132749083E785FEA320203FB51
:1038A0000667C7F5000707FB06F64FEA54374FEAED
:1038B000D64606F1020607FB066CCCF1005C4FEA27
:1038C0001C472CEA074C07FB06F40CFB06F504EB3F
:1038D00015464FEA961634BF00204FF000404FEADD
:1038E000D13706FB07FC4FEA1C4C0CFB0BF7D21B35
:1038F00003FB0CF761EB07010CFB0EF7B0EB074085
:1039000072EB17420CFB08F734BFA2EB0742B2EB95
:10391000074261EB17414FEA0C444FEA910706FB5F
:1039200007FC4FEA1C4C0CFB0BF7B0EBC74072EBEB
:10393000573203FB0CF734BFA2EBC742B2EBC742CE
:1039400061EB57310CFB0EF7B0EBC70072EB57720F
:103950000CFB08F734BFA2EBC702B2EBC70261EB66
:103960005771039F4FEA816141EA921104EBCC0445
:103970004FEAD1374FEA826206FB07FC42EA901217
:103980004FEA80604FEA1C4C0CFB0BF7D21B03FB89
:103990000CF761EB07010CFB0EF7B0EB074072EB85
:1039A00017420CFB08F734BFA2EB0742B2EB074209
:1039B00061EB17414FEA8C554FEA910704EB9C24C9
:1039C00006FB07FC4FEA1C4C0CFB0BF7B0EBC740A7
:1039D00072EB573203FB0CF734BFA2EBC742B2EBDA
:1039E000C74261EB57310CFB0EF7B0EBC70072EB2F
:1039F00057720CFB08F734BFA2EBC702B2EBC70249
:103A000061EB577115EB4C254FEA816141EA921148
:103A10004FEA82624FEAD13742EA901206FB07FC76
:103A200044F100044FEA80604FEA1C4C0CFB0BF79A
:103A3000D21B03FB0CF761EB07010CFB0EF7B0EB9D
:103A4000074072EB17420CFB08F734BFA2EB0742AA
:103A5000B2EB074261EB174115EB1C154FEA8131C0
:103A600041EA92414FEA823242EA90424FEA803084
:103A70004FEA0C7644F1000448EA03434EEA0B484F
:103A80004FF0000EB2EB080C71EB030724BF624647
:103A900039464EEB0E0E4FF0000B001852414941D3
:103AA0004BEB0B0BB2EB080C71EB03077BF1000B3C
:103AB00024BF624639464EEB0E0E4FF0000B001845
:103AC000524149414BEB0B0BB2EB080C71EB030776
:103AD0007BF1000B24BF624639464EEB0E0E51EAD5
:103AE000020718BF46F0010616EB0E7655F10002EC
:103AF00054F1000103D5BDE88901BDE80088BDE8A7
:103B00008901BDE80048B619524141EB0101A3F11A
:103B10000103704780807F7E7D7C7B7A7978777621
:103B200076757473727171706F6E6E6D6C6C6B6A9A
:103B30006A69686867666665646463636261616038
:103B4000605F5F5E5E5D5D5C5C5B5B5A5A595958B5
:103B5000585757565655555554545353525252511F
:103B6000515050504F4F4F4E4E4D4D4D4C4C4C4B75
:103B70004B4B4A4A4A4949494848484747474746BC
:103B800046464545454444444443434343424242F8
:103B900042414141002B26D4770021D01CB54FEA89
:103BA000370703B44FF010004FF010014FF0000042
:103BB0000FBCBDE810400BF1010BBBF1010F08BFBA
:103BC0005FEA170722BF12F1010211F101014FF064
:103BD000004143F1000300F0004043EA0000704759
:103BE000F9D35708DAE746EA064613F1400F4FEAE1
:103BF00016461FDD13F1200FDFBF16430A460021D2
:103C000020335B42C8D0C3F1200746EA064602FAD9
:103C100007F74FEA164646EA0706C3F1200722FADD
:103C200003F201FA07F721FA03F14FF0000342EA29
:103C30000702B1E746EA020646EA06464FEA16469A
:103C400046EA0106BCBF46EA0646360C4FF00003C2
:103C50004FF000024FF000019EE72DE9C048934667
:103C600030B491E8380007C831EA400C48BF34EA64
:103C7000430C03D5FFF7F2FDFFF78CFFF0BCBDE866
:103C800000882DE9C048934630B491E8380007C851
:103C900010F0804F08BF13F0804F03D100F005F8FB
:103CA000FFF778FFF0BCBDE8008820F07F4780EA8E
:103CB000030023F07F4C07EB0C03A3F57C5300F0CB
:103CC0000040A3F1FE0392F0000F00F0B38095F0E6
:103CD000000F00F077802DE901494FEA11404FEACB
:103CE000144621EA004800FB06FC24EA064708FBCC
:103CF00006F607FB08F800FB07F718EB06484CEB45
:103D0000164C4FEA124B18EB07484FEA15464CEB9E
:103D1000174022EA0B4E0BFB06FC25EA06470EFB7A
:103D200006F607FB0EFE0BFB07F71EEB064E4CEBF1
:103D3000164C4FF000061EEB074E4CEB174B18EBE2
:103D40000B0840F1000018EB0E0B58EB000840F197
:103D500000008F1A4FF000013CBFC943661B14BF1F
:103D6000B5EB040C00213CBFC943F61B4FEA1744D6
:103D70004EEA8E0E27EA04454FEA1C4704FB076211
:103D80002CEA074C05FB07F70CFB05F604FB0CFCC3
:103D900016EB074642EB174216EB0C4642EB1C4271
:103DA0001BEB060658EB0202414146EA9E0601D58E
:103DB000BDE80189B619524141EB0101A3F10103AC
:103DC000BDE801894FEA14454FEA114724EA054648
:103DD00021EA074C05FB07F406FB07F70CFB06F18D
:103DE00005FB0CFC11EB074144EB17444FEA12476B
:103DF00011EB0C4144EB1C4422EA074C05FB07F293
:103E000006FB07F70CFB06F605FB0CFC16EB07465A
:103E100042EB174216EB0C4642EB1C456A1854F174
:103E2000000148BF7047B619524141EB0101A3F1AF
:103E30000103704795F0000F37D04FEA11424FEA67
:103E4000144721EA024624EA074C02FB07F106FB6D
:103E500007F70CFB06F402FB0CFC14EB074441EBE8
:103E600017414FEA154714EB0C4441EB1C4125EA7E
:103E7000074C02FB07F506FB07F70CFB06F602FBF7
:103E80000CFC16EB074645EB174516EB0C4645EBCD
:103E90001C42121951F1000148BF7047B619524136
:103EA00041EB0101A3F1010370474FEA14454FEACA
:103EB000114724EA054621EA074C05FB07F106FBFA
:103EC00007F70CFB06F24FF0000605FB0CFC12EBAB
:103ED000074241EB174112EB0C4251EB1C4148BF2A
:103EE0007047921841EB0101A3F1010370474900AB
:103EF00050EAC12018BF04204A0D18BF40F001004D
:103F000040F2FF72B2EB515F08BF40F0020001289F
:103F100008BF05207047000010B500290AD00878B6
:103F2000002807D005487844FFF7E6FB002801D0B9
:103F3000002010BD0248784410BD0000E2160000C9
:103F4000DA16000010B591EA030F48BF83F0004372
:103F500000F1F883841A71EB030C05D2121943EBBC
:103F60000C03001B61EB0C01DFF824E14FEA115454
:103F7000A4EB135C1EEA430F18BF9EEA445F73D0A4
:103F800023EA0E03DCF1200E21EA045143F48013EE
:103F900032D322FA0CFE10EB0E0023FA0CFE41EB9A
:103FA0000E01CCF1200E03FA0EFE10EB0E0051F1C3
:103FB0000001B1F5801FCCF1200E32D201EB04518B
:103FC00012FA0EF2BDE8104058BF7047401C38BFCF
:103FD0005FEA420218BF7047002814BF20F00100BA
:103FE00041F100014FEA410313F5001F38BF70474C
:103FF000A1F1C04100F062BB012A43EB0302ACF126
:10400000200CDCF11F0E32BF4FF0000E23FA0CF330
:1040100010EB030041EB0451B4EB115FD0D0A1EBE6
:10402000045101F5801149085FEA300001EB0451A9
:104030000ED350F1000038BF12FA0EFE08D1BDE8D1
:104040001040C9E7401C38BF5FEA4202CAD1C3E74B
:10405000BDE810404FEA410313F5001F38BF704719
:10406000A1F1C04100F02ABB9EEA445F08D011EAEA
:104070005E0FBDE8104004BF01F000410020704712
:10408000BDE8104070B500F0CBFA00BF64FBBE3E47
:104090000000E0FF491058BFC1F140415B1058BF1C
:1040A000C3F140438B42EFF3008070472DE9C041DC
:1040B00030B4DFF8A0C23CEA111418BF3CEA131474
:1040C00000F0EC8081EA03051CEA111444EAD5747F
:1040D00018BF1CEA131500F0C780A4EB05044FF0CD
:1040E000004545EAC12145EAC32341EA505143EA6C
:1040F000525304F17F74994204F500344FEAC02012
:104100004FEAC22208BF904200F09C804FEA13653C
:104110000FF24016765D4FEA134506FB05F7C7F12F
:10412000807706FB07F74FEAD737A7FB036876428D
:10413000C8F58038A7FB06CE38BFA8F1010807FBF9
:1041400008E64FF0000EA6FB028CE6FB03CEDCF186
:10415000000CCEF1004E38BFAEF1010EA6FB0C589C
:104160004FF000074FF00005E6FB0E87A1FB08C6E5
:10417000A0FB07CE16EB0E0645F10005E1FB076537
:1041800015F1E04E7EBFA4F580345FEA46066D412E
:1041900016F1800745F100054FEA17274FEA06663A
:1041A00047EA0567A6F1DE46B6F1805F4FEA1525BE
:1041B0001FD9384624F0010C05EBC471BCF1FE6F29
:1041C00001EB0C1102D8F0BCBDE8008124425CBFB9
:1041D00001F5801E9EEAC47F02D4F0BCBDE80081D8
:1041E000244238D4F0BCA1F1C041BDE8004100F048
:1041F00065BA4FEAD22242EA43524FEAD323A7FBE1
:1042000002864FEAD02040EA415007FB03661EEACF
:104210000E0F4FEAD12105FB026658BFA6EB0056F0
:10422000B6EB00564FEA520E4EEAC37E18EB0E0E66
:1042300056EB530EBDD518EB02085E417F1C55F1BD
:104240000005B6E74FF480154FF000074FF0000669
:104250004FF00008ADE7F0BC4FF0000001F1C041A5
:1042600001F00041BDE8008111EA0C1F0CEA1315B2
:1042700000D00CE013EA0C1F00F025804FF0000086
:10428000F0BC81EA030101F00041BDE80081F0BC0F
:10429000BDE8004181EA030100F010BAF0BCBDE8BE
:1042A000004170B500F0BCF9097EFC3E00F007B893
:1042B00081EA03014FF0000001F00041704781EAFC
:1042C000030100F0FBB9F0BCBDE800414FF0000075
:1042D00021497047FFFDFBF9F7F5F4F2F0EEEDEB45
:1042E000E9E8E6E4E3E1E0DEDDDBDAD8D7D5D4D3F4
:1042F000D1D0CFCDCCCBCAC8C7C6C5C4C2C1C0BF40
:10430000BEBDBCBBBAB9B8B7B6B5B4B3B2B1B0AF45
:10431000AEADACABAAA9A8A8A7A6A5A4A3A3A2A129
:10432000A09F9F9E9D9C9C9B9A99999897979695E4
:1043300095949393929191908F8F8E8E8D8C8C8B80
:104340008B8A898988888787868585848483838208
:10435000828181800000FF070000F87F51EA030C92
:1043600017D41CF5801F58BFBCF5801F00F10680D4
:10437000994218BF704708BF9042704707D711F5A0
:10438000801F58BF13F5801F19D499427047894286
:1043900070471CF5801F08D5BCF5801FF7D58B42F0
:1043A00018BF704708BF824270474FF4001C1CEBD7
:1043B000410F38BF1CEB430F01D28B42704770B5E1
:1043C00000F02EF9922449004FF000514FF0805335
:1043D000FFF760BE4FEA1153A3F58063D3F11E03CC
:1043E000A8BFD3F1200C08DB4FF0004242EAC12203
:1043F00052EA505232FA03F0704709420BD4102BA4
:10440000C4BF0020704703F5787CBCF1FF3F05D0A6
:104410004FF0FF3070474FF00000704770B500F06C
:10442000FFF800BF4992248000207047F0E7B0FAFF
:1044300080F310FA03F10AD0C3F11D0303F5806382
:104440004FEA41504FEA035202EBD12170474FF03F
:104450000000704751EA030C17D41CF5801F58BFA9
:10446000BCF5801F00F10680994218BF704708BF55
:104470009042704707D711F5801F58BF13F5801F72
:1044800019D499427047894270471CF5801F08D59E
:10449000BCF5801FF7D58B4218BF704708BF82421A
:1044A00070474FF4001C1CEB410F38BF1CEB430F4F
:1044B00001D28B42704770B500F0B2F892244900E7
:1044C0004FF000514FF08053FFF7E4BDDFF848C1D3
:1044D00070B51CEA111E1EBF1CEA13159EEA0C0FD4
:1044E00095EA0C0F00F06F8081EA030423EA4C1375
:1044F0004EEAD47E21EA4C1141F4801143F480133A
:10450000AE44A1FB024CA0FB0365AEF17F7E3619E1
:1045100055EB0C05A1FB034C4CF10003A0FB021C66
:1045200016EB0C06654153F10003094218BF46F033
:10453000010613F4007F0BD14FEA03314FEA053037
:10454000340341EA155140EA16506FF003020AE0C5
:104550004FEAC3214FEAC520F40241EA555140EA2F
:1045600056506FF0020202EB2E4201EB025585EA33
:10457000CE710AD05FEA440C18BF24F0004450F119
:10458000000041F1000120EAD47040F2FE7C624557
:1045900000D270BDA84214BF4FF080444FF0404499
:1045A000002E08BF0024BEF1806FA8BFA1F1C0415A
:1045B000BDE8704080F282804FF0000001F1C04100
:1045C00001F0004170479EEA0C0F0CEA131518BF6A
:1045D00095EA0C0F06D04FF0000081EA030E0EF0B2
:1045E000004170BD00F01CF88900013E00F007B8E2
:1045F00000F009B84FEA430C5FEA5C5C08D081EA3E
:10460000030100F05BB84FEA410C5FEA5C5CF6D155
:104610004FF00000014970470000FF070000F87FDD
:104620000EF1020E2EF0030E5EF8046B364205D436
:10463000012A43EB030515F5001F12D8012841EBB1
:10464000010C1CF5001F0CD80ED14FEAD17C15F5DA
:10465000001F0CEB4C0C0CF1020C08BF4CEBD37C94
:1046600004E04FF0080C01E04FEAD37C0CEB4C0562
:1046700026FA05F606F00706B6F1040C06D20EEB94
:10468000860CBDE870404CF0010C6047DFE80CF090
:10469000090B02024FF000414FF00000A1F500218C
:1046A00070BD19461046012851EB010418BFD4F51E
:1046B000001484BF002001F0004170BD0808A0F57F
:1046C00000114FEA3101704753EA010C17D41CF571
:1046D000801F58BFBCF5801F00F106808B4218BFB9
:1046E000704708BF8242704707D713F5801F58BF35
:1046F00011F5801F19D48B4270479B4270471CF5FF
:10470000801F08D5BCF5801FF7D5994218BF7047A8
:1047100008BF904270474FF4001C1CEB430F38BF9A
:104720001CEB410F01D2994270470FB40CBC03BC83
:10473000FFF7C1BE10B591EA030F48BF83F00043F5
:104740003FF508AC841A71EB030C07D212198CF0F8
:10475000004C43EB0C03001B61EB0C01DFF8A4E100
:104760004FEA1154A4EB135C1EEA430F18BF9EEAF4
:10477000445F00F0B08023EA6E03524221EA045104
:10478000C3EB6E0338BF5B1EDCF1200E25D322FA8B
:104790000CFE10EB0E0043FA0CFE41EB0E01CCF1C7
:1047A000200E03FA0EFE10EB0E0051F10001CCF1C9
:1047B000200E29D412FA0EF201EB0451BDE810408C
:1047C00058BF7047401C1CBFB2F1004F7047002813
:1047D0000CBF491C20F00100704712EB020E43EBA6
:1047E000030218BF4FF0010E4EEA4202ACF1200C5A
:1047F000DCF11E0E54D943FA0CFE10EB0E0051F101
:10480000FF31CCF11E0ED5D50EF1010E12FA0EFEBF
:10481000404141EB010101EB445C5FEA5C5C10D973
:1048200010EBDE7001EB045138BFBEF1004FBDE864
:10483000104018BF704700280CBF491C20F0010031
:10484000704730D24FEAD42C11F5001124F40064E3
:104850001BD0B1FA81F20B3AA41AA41ED2F12003A4
:10486000914030FA03F31943904001EBCC71002CD6
:1048700001EB0451BDE81040A8BF704701F1C041F1
:104880004FF0000001F000417047B0FA80F310FAD9
:1048900003F100D110BDE41A173C4805C90AE4E74A
:1048A00001EB045110BD491001EB0451BDE810406B
:1048B0004FEA300002E04FF0000170474A0008BFA5
:1048C0000042F8D0B2F5001F28BF704701F0004148
:1048D0004FF0000070479EEA445F07D011EA5E0F78
:1048E000BDE8104004BF002100207047BDE8104023
:1048F00070B5FFF795FE00BF40DFF63E83F0004144
:10490000104670470000E0FF90EA010F48BF81F0B9
:10491000004100F1A281421A3CBF801A89184FEA77
:10492000D0524FF07F4C1CEA410FA2EBD15318BF7D
:104930009CEA026F00F03B804FF0004C4CEA0020F4
:104940004CEA012121FA03FC10EB0C0C1ED202F1FF
:10495000FF325FEA1C2040EBC25038BF70471CF0AA
:104960007F0F4FEA400C18BFBCF17F4F38BF704734
:10497000C3F12003994008BF20F00100BCF17F4F34
:1049800038BF7047A0F1C04000F05BB94FEA3C006F
:10499000000A40EBC25028BF1CF0FF0F4FEA400C4A
:1049A000E6D018BFBCF17F4F38BF7047EAE79CEAFA
:1049B000026F05D010EA5C0F08BF00F0004070479E
:1049C00010B500F0F8F800BF64FBBE3E401058BFC1
:1049D000C0F14040491058BFC1F140418142EFF35E
:1049E00000807047C10DD1F19E0206DB4FEA002323
:1049F00043F0004323FA02F07047004207D54FEA24
:104A00004001B1F1FE4F02D24FF00000704710B5E7
:104A100000F0D1F849922480002070476FEA20000E
:104A200070470000B0FA80F310FA03F2C3F19D035F
:104A30000AD0D90501EB1220530638BF704700F1A8
:104A4000010008BF20F001007047000050EA010C8F
:104A500000F113801CF5000F58BFBCF5000F01D406
:104A60008842704707D710F5000F58BF11F5000FA7
:104A700015D488427047894270471CF5000F04D551
:104A8000BCF5000FF7D5814270474FF0807C1CEBDE
:104A9000400F38BF1CEB410F01D28142704710B567
:104AA00000F089F8922449004FF000504FF08051F7
:104AB000FFF78CBF4FF47F0C1CEAD0121EBF1CEA1C
:104AC000D11392EA0C0F93EA0C0F00F0478090EAA2
:104AD000010F48BF42F480724FF0004C4CEA0020B6
:104AE0004CEA012102EB0302A0FB0113A2F5000234
:104AF000002918BF43F001035B0028BF4FEA3303CE
:104B000042EB22425FEA132C4CEBC2502EBFBCEBAF
:104B1000436FB2F57C0F70474FEA036CBCF1004F56
:104B200008BF20F00100B2F57C0F38BF70470BD5ED
:104B300082F0FF0212F5803FC8BF704700F1C0400D
:104B4000D8BF00F00040704700F5000C5FEA4C0C45
:104B500048BF7047B0F1C04000F073B890EA010F51
:104B60000CEAD11348BF42F48072624538BF6345F6
:104B700004D280EA010000F00040704710B500F058
:104B80001AF800BF8900013E00F007B800F009B82C
:104B90005FEA410C5FEA1C6C08D080EA010000F07B
:104BA00050B85FEA400C5FEA1C6CF6D14FF0004051
:104BB000A0F5800070470EF1020E2EF0030E5EF895
:104BC000044B244204D44FEA4102B2F17F4F11D882
:104BD0004FEA4003B3F17F4F0CD80ED14FEAD07C9F
:104BE000B2F17F4F0CEB4C0C0CF1020C08BF4CEBFC
:104BF000D17C04E04FF0080C01E04FEAD17C0CEBD3
:104C00004C0324FA03F404F00704B4F1040C06D2B4
:104C10000EEB840CBDE810404CF0010C6047DFE85F
:104C20000CF0070802024FF00040A0F5800010BD14
:104C30000846420018BFD2F1807288BF00F00040E1
:104C400010BDFF2141EAD050C005704790EA010F26
:104C500048BF81F000413FF55EAE421A04D882F0B1
:104C60000042A0EB020011444FEAD0524FF07F4CBB
:104C70001CEA410FA2EBD15318BF9CEA026F4AD045
:104C80004FF0004C4CEA00204CEA012121FA03FCD1
:104C9000B0EB0C0C0FD412F0FE0F36D05FEA4C00D4
:104CA0001DD5001240EBC25038BF70471CF03F0FBB
:104CB00018BF70470BE0A2F101025FEA1C2040EB35
:104CC000C25038BF70471CF07F0F18BF7047C3F148
:104CD0002003994014BF401E20F001007047800857
:104CE0004FEA122308BF7047B0FA80FCA2EB0C0217
:104CF000CCF1280C60FA0CF093EA122F04BF00EB01
:104D0000C25070474FEAC3707047130A5FEADC1065
:104D100008BF7047F6E79CEA026F04D010EA5C0F08
:104D200008BF0020704710B5FFF745FF40DFF63E93
:104D300081F000407047FEF752BA0000000000000A
:104D40000000002F000000000700070000147F147F
:104D50007F1400242A7F2A1200626408132300367D
:104D60004955225000000503000000001C224100AC
:104D7000000041221C000014083E08140008083EF0
:104D80000808000000A060000008080808080000EB
:104D900060600000002010080402003E5149453EBA
:104DA0000000427F400000426151494600214145D8
:104DB0004B31001814127F10002745454539003C3F
:104DC0004A4949300001710905030036494949360D
:104DD00000064949291E00003636000000005636FC
:104DE00000000008142241000014141414140000E0
:104DF0004122140800020151090600324959513E6E
:104E0000007C1211127C007F49494936003E414125
:104E10004122007F4141221C007F49494941007FD6
:104E200009090901003E4149497A007F0808087FC5
:104E30000000417F4100002040413F01007F0814F5
:104E40002241007F40404040007F020C027F007FF3
:104E50000408107F003E4141413E007F09090906D8
:104E6000003E4151215E007F09192946004649490B
:104E700049310001017F0101003F4040403F001FD8
:104E80002040201F003F4038403F00631408146357
:104E900000070870080700615149454300007F4141
:104EA000410000552A552A55000041417F00000469
:104EB00002010204004040404040000001020400A2
:104EC000002054545478007F484444380038444407
:104ED000442000384444487F003854545418000893
:104EE0007E0901020018A4A4A47C007F08040478B1
:104EF0000000447D4000004080847D00007F102839
:104F000044000000417F4000007C04180478007CCD
:104F10000804047800384444443800FC242424184D
:104F20000018242418FC007C080404080048545489
:104F3000542000043F444020003C4040207C001CA2
:104F40002040201C003C4030403C004428102844B5
:104F5000001CA0A0A07C004464544C4414141414FD
:104F60001414000000000000000000000000000019
:104F70000000000000F800000000000000333000D6
:104F8000000000100C06100C0600000000000000DD
:104F9000000040C07840C0784000043F04043F0453
:104FA0000400007088FC08300000001820FF211E5B
:104FB0000000F008F000E018000000211C031E2192
:104FC0001E0000F00888700000001E21232419270D
:104FD000211010160E00000000000000000000006C
:104FE0000000000000E01804020000000007182084
:104FF000400000020418E0000000004020180700F4
:105000000000404080F0804040000202010F010299
:105010000200000000F0000000000101011F01017A
:105020000100000000000000000080B070000000DF
:10503000000000000000000000000001010101016B
:1050400001010000000000000000003030000000FE
:1050500000000000000080601804006018060100D5
:10506000000000E010080810E000000F10202010E1
:105070000F00001010F8000000000020203F20204A
:1050800000000070080808887000003028242221E1
:105090003000003008888848300000182020201197
:1050A0000E000000C02010F8000000070424243F78
:1050B000240000F808888808080000192120201121
:1050C0000E0000E0108888180000000F1120201149
:1050D0000E0000380808C83808000000003F000033
:1050E00000000070880808887000001C222121221E
:1050F0001C0000E010080810E0000000312222111E
:105100000F00000000C0C0000000000000303000B0
:10511000000000000080000000000000806000002F
:105120000000000080402010080000010204081068
:105130002000404040404040400004040404040477
:105140000400000810204080000000201008040225
:105150000100007048080808F00000000030360127
:105160000000C030C828E810E000071827242314E6
:105170000B000000C038E0000000203C23020227A2
:10518000382008F8888888700000203F20202011EF
:105190000E00C0300808080838000718202020102A
:1051A000080008F808080810E000203F2020201020
:1051B0000F0008F88888E8081000203F20202320EE
:1051C000180008F88888E8081000203F2000030035
:1051D0000000C03008080838000007182020221EF0
:1051E000020008F808000008F808203F210101210A
:1051F0003F20000808F8080800000020203F202079
:10520000000000000808F8080800C08080807F00C7
:10521000000008F888C028180800203F2001263820
:10522000200008F8080000000000203F2020202077
:10523000300008F8F800F8F80800203F003F003F71
:10524000200008F830C00008F808203F20000718A8
:105250003F00E01008080810E0000F102020201088
:105260000F0008F808080808F000203F210101019C
:105270000000E01008080810E0000F18242438503F
:105280004F0008F8888888887000203F2000030CB1
:1052900030200070880808083800003820212122BA
:1052A0001C00180808F8080818000000203F20001B
:1052B000000008F808000008F808001F202020203F
:1052C0001F000878880000C83808000007380E0161
:1052D0000000F80800F80008F800033C0700073C4D
:1052E0000300081868808068180820302C03032CFD
:1052F00030200838C800C83808000000203F2000CF
:10530000000010080808C83808002038262120208E
:105310001800000000FE020202000000007F404072
:105320004000000C30C00000000000000001063802
:10533000C00000020202FE000000004040407F006A
:10534000000000000402020204000000000000004F
:10535000000000000000000000008080808080804D
:105360008080000202040000000000000000000035
:10537000000000008080808000000019242222228A
:105380003F2008F8008080000000003F112020111D
:105390000E000000008080800000000E1120202000
:1053A0001100000000808088F800000E11202010FD
:1053B0003F200000808080800000001F22222222E7
:1053C0001300008080F0888888180020203F20206B
:1053D00000000000808080808000006B9494949393
:1053E000600008F8008080800000203F210000203D
:1053F0003F2000809898000000000020203F2020DF
:105400000000000000809898000000C08080807F2D
:10541000000008F8000080808000203F24022D302A
:105420002000000808F8000000000020203F202095
:1054300000008080808080808000203F20003F200E
:10544000003F8080008080800000203F21000020FD
:105450003F200000808080800000001F202020204E
:105460001F00808000808000000080FFA1202011AC
:105470000E000000008080808000000E112020A01F
:10548000FF80808080008080800020203F212000DD
:1054900001000000808080808000003324242424C8
:1054A0001900008080E0808000000000001F2020A4
:1054B00000008080000000808000001F202020105D
:1054C0003F20808080000080808000010E30080630
:1054D000010080800080008080800F300C030C3041
:1054E0000F0000808000808080000020312E0E316F
:1054F0002000808080000080808080818E7018066F
:10550000010000808080808080000021302C2221DA
:10551000300000000000807C020200000000003F1C
:10552000404000000000FF00000000000000FF00FD
:1055300000000002027C800000000040403F0000AC
:105540000000000601010202040400000000000047
:105550000000000002400000000000A00000000069
:1055600005400000000000C8000000000C400000E2
:105570000000409C00000000194000000020BCBE5C
:105580000000000034400000BFC91B8E0000000472
:10559000B5400000504BCFD06607E2CF01000000BD
:1055A0006C4100003E8251AADFEEA73401000000EA
:1055B000D9420000DCB5A0E23A301F97FFFFFFFFA1
:1055C000B4450000FD25A0C8E9A3C14FFFFFFFFFC0
:1055D000FF3F00000000008000000000FF3F0000CF
:1055E0000000008000000000245600080000002099
:1055F000D00500006C010008205A0008D0050020EA
:1056000078140000C80100081C00000043000000DE
:10561000F8FFFFFF0C0000000E0000000F0000006C
:105620002E000000016184A24A04000A3F01020327
:10563000040607080901100BF0781C060602029206
:105640008A841008C0F0381807FFE750130203C31C
:10565000A32101C1848A92820202060C78F0C01054
:105660000821C10143E303021EEEFF0E1838141691
:10567000071F7080E01009010F1F70E0C304034290
:1056800003180D030D317060C0C0E16746183C146B
:10569000100884C7E4781F0F013811E080701F07DD
:1056A0003C184667E1C0C06060310D2C150C121229
:1056B0000C700AF0180C0404040C1830400A0F187F
:1056C0003020202030180C280D80C0E0F0F8FCFCC1
:1056D000F8F0E0C080F329011A7F013909191F2968
:1056E000011AFC0139092921180B03070F1F3F3F3D
:1056F0001F0F07031F1119592BFF54011AFF0A210D
:10570000101011118985939191FD919193858911C3
:1057100011170484E45C44C420087C4040FF4040EE
:105720007C1702017F10103F20087E40407F4040E0
:10573000FE17101010FF10901009F80808090E0845
:105740000808A0090444827F0180601F3FFE129276
:1057500092F292041A1E8F100F601F0404FC47245B
:105760000C1427344C44441934193C2A08461C10A4
:1057700010F050200E30101F088848300E01408075
:10578000403F100908CC4A49484ACC18277F8888EE
:105790008482E027FF121252927F5A7E103983B41E
:1057A00010F0F81E2020203F3F05611C6070506102
:1057B00019012BF0F012400E20303028282424222A
:1057C00021212030183C3030301F5490F0602E18CA
:1057D000382020210174121E0C7C80402062400F72
:1057E00004060505040424243F3F242404043BE06C
:1057F000E08791A43838381A80011EFF8080A0907D
:10580000AE190B51300CFF4021120408102020402B
:10581000402809FC242424FC252624081204380DE1
:1058200040308F80844C55252525554C30180C026E
:1058300002F2121212F2020202FE0441160F0404D6
:10584000040F4440807F15404042CC480940A09E50
:105850008282829EA0F3380B3F908840432C102810
:10586000464170480880C0E0F0F8FCC001214809BA
:105870000103070F1F3F7F070111280D2010E824A7
:10588000272424E424342C20C71D80601F09013EF6
:105890007F0909498961091EA011051B0C12120C10
:1058A0001BF808012C887F88072AF8FD111D0804C1
:1058B0000201882B024CC2280E4454547F54544495
:1058C000202827E4342C8116FF1555957F297E1C4E
:1058D00009091F28212AF0162A400139F05B407F70
:1058E000043912195C2808C8380C0B0808E8611242
:1058F00008195B1CFF4041012A7F0512401010422D
:105900004A52FE514982864A52A2524A8680180C57
:10591000100C03FF020410121212FF041A10401898
:105920000EF94A48C84820D8171010F01010E01897
:105930000D0F20403F8040211608162140E012E064
:105940002808FF10200888780F62128819921AFF21
:1059500045100983442318071862814E201008F768
:10596000540124F40404180F809090494D572525C4
:1059700025554D458080701C1014D41C2FFC5252AC
:1059800052D3126018084050575555557F043B5765
:1059900050D21E4244584040E0345048464A040128
:1059A0005AFF0821180D1088C43380824222121A2F
:1059B00026229029E0111E404242427E042A4240A3
:1059C000114BFE220142FE2D4040407F1A19011A60
:1059D0007F0C19102342CC2809FC24A4242222A3E2
:1059E0006221280D201F2058475048454245485005
:1059F00040380BFE0202F2121212F20202411100B2
:105A00000C137F2020272424242720207F2D01020F
:105A10000304042009060708090204060800000020
:0400000508000131BD
:00000001FF
